:020000040000FA
:0600000002010A021DBA14
:03002B00021A991D
:03003B00021AB2F4
:03004300021A445A
:03005300021E305A
:03006B00021A6A0C
:10008300021CABE5C754F84401F5C779012200000F
:100093000080FB120086B900030200F4E4792178A2
:1000A30008B800028004F709D8FCE479297802B87B
:1000B30000028004F709D8FCE49002817872790980
:1000C3008002F0A3D8FCD9FA900AF2AA82AB8390FB
:1000D300013A788B79038015E493A3AC82AD838ACC
:1000E300828B83F0A3AA82AB838C828D83D8E9D9D8
:1000F300E7758276758394740312011C758291757A
:100103008300740012011C75D00075813F7518813E
:10011300751902759F00020096C09FF59FE473D086
:100123009F22D083D082C09FE493C0E0740193C028
:10013300E0740293F59F22FFFF110199010F1264EE
:100143000401023A9001000015900236900100006C
:10015300F90A025890010000FA0A023490030000E1
:10016300A702022690010000FB0A02020202020219
:10017300020202010D0000001001023A900100008A
:100183001890023690010000250B025290010000E6
:10019300AD02023690010000260B025090010000D0
:1001A3003D8F023690010000270B024E90010000A4
:1001B300148F023690010000280B024C90010000BE
:1001C300918E023690010000290B024A9001000033
:1001D3007F8E0236900100002A0B02489001000036
:1001E300B58E0236900100002B0B024690010000F1
:1001F300A38E0236900100002C0B024490010000F4
:10020300228F0236900100002D0B02429001000064
:100213002E0B01E803053F10120948656172742033
:10022300526174652053656E736F72020106050295
:100233000D180F184865617274205261746520535C
:10024300656E736F720000000049490349038E060F
:100253000000100208023A900100001E900236903E
:100263000100000D0C023C90000000600502349078
:1002730003000061050236900100000E0C0240905D
:1002830001000067050236900100000F0C02569032
:100293000200006805FF000130750302010600003B
:1002A300000000000000000000000000000000004B
:1002B30000000000000000000000FFFF0600800CAB
:1002C300E803FF0000B4000028002800283075A0D0
:1002D30000A000A000A00000080008E001F000104A
:1002E30000100010001000100010005000500050CB
:1002F3000010001000D0070000000000000F0001F4
:10030300000500307507001000010081FF0000FFA9
:100313009A09B809A009FF02020208025000A000CE
:100323000000E803023A900100001B90023690019E
:100333000000D20C023290010000490602369001FF
:100343000000D30C0230900100005F0602369001DA
:100353000000D40C022E90010000610602369001C9
:100363000000D50C022C90080000620602369001B2
:100373000000D60C022A90010000D70CFF0100FFF9
:1003830020023A9001000021900236900100003BC8
:100393000D0228900000000000023490030000AF1B
:1003A30006B20FB20FB20FB20FB20FB20FB20FB24B
:1003B3000FB20FB20FB20FB20FB20F82129A127CAA
:1003C300121201259FC102120125A9C102120125A2
:1003D300EAC10212012533C2021201256DC20212C3
:1003E3000125C3C202120125E4C202120125EDC296
:1003F3000212012541C3021201256AC3021201251B
:1004030074C302120125E2C30212012572C402124F
:100413000125CDC402120125FBC40212012583C5A7
:1004230002120125C2C502120125F7C502120125D8
:1004330009C60212012528C60212012531C602127D
:100443000125F3C602120125B88D031201259D84EF
:1004530003120125D3840312012507850312012505
:100463005486031201255793031201256D9303123A
:1004730001257793031201257DDE0212012590DE0B
:100483000212012554DF0212012593DF0212012516
:10049300B0DF02120125E9DF0212012536E0021264
:1004A300012568E0021201259FE002120125B2E254
:1004B30002120125C19303120125AF8E03120125F8
:1004C300D28E03120125018F03120125198F031206
:1004D30001255B8F031201252DEE021201255DEE2E
:1004E3000212012570EE021201259FEE0212012570
:1004F300B6EE0212012562EF02120125FBEF021292
:10050300012584F00212012551F102120125E4FABA
:100513000212012509FB0212012533FB02120125F8
:10052300209403120125E63900120125C43B001271
:100533000125633D001201250E3E001201258E3E6A
:1005430000120125133F001201253C3F0012012533
:100553001743001201258E4300120125A544001202
:100563000125DF44001201252045001201256746BD
:1005730000120125BD460012012506470012012580
:10058300754700120125E1470012012512480012A8
:1005930001252A4800120125434900120125534928
:1005A30000120125094B00120125204B00120125E1
:1005B300524B00120125F44C00120125884D001204
:1005C30001257B90031201258C90031201252C91A8
:1005D30003120125F7FF01120125E79403120125F8
:1005E3003791031201254791031201255F910312ED
:1005F3000125C79103120125FC7E00120125817F8D
:1006030000120125E57F00120125A78C03120125A5
:10061300C98C031201252A8D031201257A8D031239
:1006230001257CEA0212012593EA021201250DEB52
:1006330002120125F1EB02120125C8ED0212012578
:10064300D6F40212012570F5021201250CF60212EE
:1006530001259DF6021201254DF7021201255BF7D4
:1006630002120125C7F702120125DDF70212012547
:10067300E7F702120125AFBB02120125C8BD021222
:10068300012582BE02120125FDBE02120125C4BF4F
:10069300021201251EC10212012560C102120125A9
:1006A300C8FD0212012506FE0212012519FE0212DF
:1006B300012535FE0212012573FE02120125ECFE0F
:1006C30002120125B7FF021201255A9203120125D6
:1006D300CA9203120125FA89031201254C8A0312D7
:1006E3000125BF8A031201252C8B03120125568293
:1006F300031201258082031201254F830312012572
:100703002B840312012550A5021201251CA60212F7
:1007130001255DA60212012597A602120125F5A661
:100723000212012549A702120125A7A702120125DA
:100733003DA80212012545A902120125CFAA0212E2
:1007430001256DAB02120125D4AB02120125E7ABE3
:1007530002120125DBAC0212012524AD0212012590
:1007630070D901120125A2DC0112012533DE011229
:1007730001258ADE01120125A7DE0112012527DFEB
:1007830001120125A3E00112012572E101120125E5
:10079300DFE401120125C9E501120125478803128F
:1007A30001255E88031201258D8803120125C68861
:1007B30003120125EE88031201251C89031201256A
:1007C3003389031201254A89031201256089031223
:1007D30001258789031201259A8903120125B0890E
:1007E30003120125C38903120125E8890312012598
:1007F300008002120125FF800212012534810212BA
:100803000125558102120125658102120125868188
:10081300021201259282021201255F830212012531
:10082300D283021201255884021201259B840212ED
:100833000125D284021201255885021201252A8638
:1008430002120125888602120125A08602120125C3
:100853001A87021201251D87021201252087021221
:100863000125C78702120125DF87021201250F88A0
:10087300021201252F88021201251D89021201256A
:10088300D3890212012509D10212012531D10212A5
:1008930001255FD10212012596D102120125FED155
:1008A3000212012547D20212012592D2021201251A
:1008B300D0D2021201250DD3021201253BD302121D
:1008C3000125E2D302120125ECD302120125F9D34B
:1008D300021201252CD402120125EED402120125A5
:1008E300FAD40212012512D5021201251CD50212D7
:1008F3000125A48F03120125B28F03120125CA8F8C
:1009030003120125E28F03120125BAAE011201255C
:1009130058AF01120125D0AF01120125E5B0011234
:1009230001251FB101120125C8B1011201259DB294
:100933000112012501B40112012558B40112012548
:10094300DFB401120125C6B50112012513B6011248
:100953000125A1B601120125C5B6011201259AB8D8
:1009630001120125DBB801120125FDB80112012591
:100973007EB90112012568BA011201252EBB0112AD
:100983000125A3B40212012575B5021201251EB675
:100993000212012561B602120125EEB602120125EB
:1009A3007AB7021201255BB8021201258AB8021236
:1009B300012586B902120125CEB902120125D0BA4A
:1009C3000212012514BB021201253ABB02120125B2
:1009D300D19103120125ABE602120125C1E60212F1
:1009E3000125E7E6021201250FE80212012519E8A5
:1009F3000212012572E90212012572EA021201258F
:100A030021C70212012556C80212012589C8021204
:100A13000125D3C80212012591CA021201255F9054
:100A230001120125C290011201250792011201252D
:100A33001792011201253A920112012585920112A2
:100A430001252A9301120125209401120125EA941C
:100A530001120125629601120125A49601120125B6
:100A63004297011201258F9701120125B5970112B3
:100A73000125A39901120125A89901120125899B3A
:100A830001120125DD9B011201253F9C0112012565
:100A9300679C011201250B9D01120125CD9D0112B9
:100AA3000125FE9D01120125019E01120125499E8A
:100AB300011201258B9E01120125F29E01120125CF
:100AC3000080031201251380031201252C800312D9
:100AD3000125778003120125528103120125E1814B
:100AE300031201252C8203120125C82100120125BE
:100AF300D421001201250D220012012552220012D9
:100B030001250923001201258F2300120125BB2390
:100B130000120125F42300120125082600120125E5
:100B2300E42700120125CF2900120125062B00120C
:100B33000125662D00120125522E00120125982F42
:100B430000120125A53000120125C2300012012533
:100B5300FA30001201251431001201257C310012F4
:100B63000125163600120125B73600120125083774
:100B7300001201252F37001201257D3700120125B0
:100B83009B3700120125EF3700120125F7380012B9
:100B930001257F3900120125B1D502120125BBD5EC
:100BA3000212012586D602120125A1D602120125C1
:100BB300C7D6021201250BD70212012543D7021211
:100BC30001256CD702120125E5D702120125FAD7B8
:100BD300021201250FD80212012546D8021201255F
:100BE3005AD8021201258BD802120125C5D8021248
:100BF3000125F1D80212012568D902120125B1D9C4
:100C030002120125DBD90212012500DA02120125A5
:100C1300BFE20212012589E3021201256CE40212EC
:100C23000125E2E40212012524E50212012551E621
:100C33000212012545F3011201256EF3011201256C
:100C430087F301120125CCF401120125AAF5011243
:100C53000125C9F50112012556F60112012599F660
:100C630001120125E6F70112012585F8011201257C
:100C730004FB011201259BFB011201256FFC0112EC
:100C8300012551FD01120125BDFE0112012550FF71
:100C930001120125928B03120125FB8B03120125FF
:100CA3004F8C03120125768C0312012528DA0212D8
:100CB300012595DA02120125E0DA02120125D5DBBE
:100CC30002120125D1DC02120125BBDD021201252E
:100CD300E29C02120125249D02120125FE9D0212AF
:100CE3000125D79E02120125D29F02120125B1A030
:100CF300021201251DA102120125E4A10212012500
:100D03004FA202120125B6A202120125E1A202128C
:100D1300012552A302120125E5A3021201254EA4C7
:100D23000212012563A402120125ABA402120125BC
:100D3300C4A40212012529A5021201252CA5021221
:100D43000125EAF70212012512F80212012550F8D3
:100D5300021201250EF90212012579F90212012569
:100D630095F902120125BDF902120125EDF90212CE
:100D73000125FCF90212012576FA021201259CFADB
:100D830002120125BC9F0112012559A1011201255F
:100D93003FA30112012509A40112012550A4011248
:100DA300012597A401120125A9A401120125E9A493
:100DB3000112012518A50112012564A501120125BF
:100DC3009CA501120125CAA5011201251BA601122A
:100DD3000125AAA60112012598A90112012572ABCA
:100DE30001120125AEAB0112012508AD0112012547
:100DF3004FAD01120125C4AD0112012512AE01123E
:100E03000125DF9302120125FC9302120125969915
:100E130002120125989A02120125129C0212012541
:100E2300C09C02120125C64D001201250F4E00126F
:100E330001253C4E001201256F4E001201257C4E08
:100E430000120125884E001201259A4E0012012539
:100E53006F4F00120125CD4F0012012502500012E1
:100E630001259E5100120125EB51001201250F525D
:100E7300001201257C520012012521530012012585
:100E8300DD53001201255C54001201252055001288
:100E930001252F5500120125B055001201254F568B
:100EA300001201258156001201251C57001201254D
:100EB3007A5700120125B457001201253558001244
:100EC3000125FE5800120125A759001201252E5AAB
:100ED30000120125865A00120125E75A0012012546
:100EE300105B00120125C65B00120125105D001284
:100EF3000125535D00120125705D001201258F5DF0
:100F030000120125DA5D00120125FF5D00120125A3
:100F1300285E00120125975E00120125D95E00129A
:100F23000125DD5F00120125776000120125436171
:100F3300001201255C61001201253E8A021201257F
:100F4300918A021201259D8A02120125728B0212D7
:100F53000125998B02120125D48B02120125408CA5
:100F630002120125748C02120125AD8C0212012597
:100F7300C58C021201251E8D02120125378D021226
:100F83000125808D02120125938D02120125AD8D5D
:100F930002120125C38D02120125DF8E02120125E3
:100FA300F08F021201253D910212012522920212B5
:100FB3000125F4FF011201255FE60112012593E6E5
:100FC30001120125FEE90112012548EB0112012559
:100FD30012EC011201259CED0112012577EE01129D
:100FE3000125B1EE01120125D4EE0112012516EF00
:100FF300011201251FEF0112012569EF01120125DD
:1010030073EF011201251FF001120125F3F0011204
:10101300012547F101120125A9F101120125FCF176
:10102300011201252BF2011201256AF20112012599
:101033008E6100120125E86900120125EE69001294
:101043000125A96F001201258F730012012588F174
:1010530002120125FEF10212012514F202120125EA
:1010630051F20212012589F20212012506F302123E
:10107300012541F302120125BCF302120125F8F305
:101083000212012501F4021201250DF402120125B9
:1010930027F4021201254CF40212012562F4021214
:1010A3000125A6F40212012547CC021201255ACCD0
:1010B3000212012574CC021201259DCC02120125D6
:1010C300E0CC021201251FCD021201255DCD0212D3
:1010D3000125C2CD02120125D7CD02120125E2CD91
:1010E30002120125EFCD0212012506CE02120125BF
:1010F30014CE021201251FCE021201252BCE02129D
:1011030001253ECE0212012549CE021201256CCEE5
:101113000212012515CF0212012525CF0212012546
:101123003FCF021201255CCF0212012578CF0212B4
:1011330001259DCF02120125A7CF02120125BBCFA6
:1011430002120125DACF021201253BD0021201253A
:1011530041D00212012547D0021201254DD00212BF
:10116300012559D0021201258CD002120125E6CBAC
:101173000112012568CC0112012511CD01120125AF
:1011830059CE0112012567D0011201254DD101125B
:10119300012582D101120125A4D1011201254DD2CD
:1011A300011201251DD40112012546D40112012586
:1011B300BED401120125F0D401120125FDD4011280
:1011C300012548D5011201256CD501120125BDD792
:1011D30001120125C7D80112012523D901120125C6
:1011E30063BD0112012574BE0112012558BF01120E
:1011F300012562BF0112012584BF0112012590BFA1
:101203000112012534C10112012561C10112012519
:1012130077C201120125CCC2011201251BC40112A0
:101223000125F0C4011201254CC501120125B7C5E2
:1012330001120125ECC5011201252FC6011201255A
:10124300F9C80112012511C901120125A2C9011210
:101253000125B0C901120125FDC9011201250BCADF
:101263000112012577CA01120125F2CA01120125D3
:1012730049CB01120125DE7300120125007400120F
:101283000125117600120125D07800120125FA7983
:1012930000120125B87A00120125A47B0012012552
:1012A3008E8603120125B3860312012529870312B3
:1012B300012586AD021201258FAD0212012598ADDD
:1012C3000212012570AE0212012521B0021201257E
:1012D30051B0021201257CB002120125ACB00212FA
:1012E3000125D7B0021201250BB10212012537B136
:1012F300021201257AB102120125A5B102120125BC
:10130300ECB10212012541B20212012583B202128D
:101313000125DDB20212012508B30212012557B3DC
:101323000212012587B302120125B2B3021201256D
:10133300E0B30212012503B402120125DA9203126B
:1013430001250693031201253393031201253D93CF
:10135300031201254D9303120125C7FF0112012535
:10136300C99403E066701008A3E066700A08A3E05E
:1013730066700408A3E06622C3E7960809E79608A7
:1013830009E7960809E79622C3E09608A3E09608C2
:10139300A3E09608A3E09622C008C3E096F50808E8
:1013A300A3E096420808A3E096420808A3E0964506
:1013B300087001D3D00822080808EAC0E0EBC0E0B7
:1013C30086F0E7A4FA180986F0E7A42AFA18098632
:1013D300F0E7A42AFA180986F0E7A42AFA1986F096
:1013E300E7A4FBE5F02AFA190886F0E7A42BFBE54E
:1013F300F03AFA190886F0E7A42BFBE5F03AFA185D
:10140300180986F0E7A4C5F02BFBE43AFA1908E7BC
:10141300C5F0C6A426F6E5F03BFBE43AFA1886F0DD
:10142300E7A4F6E5F00826F6E43B08F6E43A08F606
:10143300D0E0FBD0E0FA22E4CFC0E0E4CEC0E0E4A9
:10144300CDC0E0E4CCC0E075F020C3E633F608E697
:1014530033F608E633F608E633F6181818EC33FCCF
:10146300ED33FDEE33FEEF33FFC3EC9709ED970940
:10147300EE9709EF97191919400FFFEC97FC09ED47
:1014830097FD09EE97FE191906D5F0BEECF709EDA5
:10149300F709EEF709EFF7191919D0E0FCD0E0FDD1
:1014A300D0E0FED0E0FF226016080808C6C313C6CA
:1014B30018C613C618C613C618C613C6D5E0EA2243
:1014C3007009080808226016181818C6C333C6081E
:1014D300C633C608C633C608C633C6D5E0EA22E615
:1014E30027F60809E637F60809E637F60809E63766
:1014F300F622E026F608A3E036F608A3E036F6085F
:10150300A3E036F622E026F008A3E036F008A3E0D5
:1015130036F008A3E036F022C3E697F60809E6970B
:10152300F60809E697F60809E697F622C3E096F06F
:1015330008A3E096F008A3E096F008A3E096F02253
:10154300E056F608A3E056F608A3E056F608A3E033
:1015530056F622E056F008A3E056F008A3E056F052
:1015630008A3E056F022E0F608A3E0F608A3E0F6AD
:1015730008A3E0F622E6F008A3E6F008A3E6F008E5
:10158300A3E6F022E0FAA3E0FBA3E0FCA3E0FD2244
:10159300EAF0A3EBF0A3ECF0A3EDF022CAC0E0E67F
:1015A300F0A308DAFAD0E0FA22CAC0E0E0A3C582C9
:1015B300CCC582C583CDC583F0A3C582CCC582C506
:1015C30083CDC583DAE6D0E0CA22C3E498F8E49970
:1015D300F912160E8026C3E49AFAE49BFBE920E78E
:1015E300E912160EE498F8E499F922C3E498F8E4B2
:1015F30099F912160EE498F8E499F9C3E49AFAE417
:101603009BFB22EB20E7CFE920E7E0B90010BB000A
:1016130008E88AF084F8AAF022E4FBC8FA22EB7007
:10162300227B10C833C8C933C9335007C39AC3DBFD
:10163300F280069A50012ADBEAC833F4C8C933F4AE
:10164300C9FA2275F008E4C833C8C933C933C99A43
:10165300C99B5004C92AC93BD5F0ECFBC833F4C875
:10166300E4C9FA22600D08C6A2E713C618C613C65A
:10167300D5E0F322600C08C6C313C618C613C6D53B
:10168300E0F422700422600D18C6C333C608C633C3
:10169300C6D5E0F41822251810AF08F51840021536
:1016A300198008F51840021519D2AF22C0D02518A9
:1016B30010AF08F518500205198008F518500205F7
:1016C30019D2AFD0D0222518F58210AF08F51840F3
:1016D3000215198008F51840021519D2AF85198330
:1016E300222518F582E43519F58322E4732518C5FC
:1016F30082C0E0E51934FFC583C0E0E518C39582D5
:1017030024F810AF0885831985821880088583190A
:10171300858218D2AFCEF0A3E520F0A37808E608BF
:10172300F0A3DEFAEFF0A3E58124FAF8E608F0A3CC
:10173300E608F0A3E608F0A30808E608F0A3E60825
:10174300F0A315811581D0E0FED0E0F81581158155
:101753001581E8C0E0EEC0E0222518C582C0E0E5AF
:101763001934FFC583C0E0E518C3958224F910AF8F
:10177300088583198582188008858319858218D284
:10178300AFCEF0A3E520F0A37808E608F0A3DEFAD5
:10179300EFF0A3E58124FBF8E608F0A3E608F0A345
:1017A3000808E608F0A3E608F0A315811581D0E048
:1017B300FED0E0F815811581E8C0E0EEC0E0228597
:1017C3001983851882E0A3FEE0A3F5207808E0A33F
:1017D300F608DFFAE0A3FFE0A3C0E0E0A3C0E0E087
:1017E300A3C0E0E0A3C0E0E0A3C0E010AF0885829F
:1017F300188583198008858218858319D2AFD08311
:10180300D082020122851983851882E0A3FEE0A31A
:10181300F5207808E0A3F608DFFAE0A3FFE0A3C011
:10182300E0E0A3C0E0E0A3C0E0E0A3C0E010AF08A5
:101833008582188583198008858218858319D2AF1C
:10184300D083D08222C0D02518C582C0E0E51934E8
:10185300FFC583C0E0E518C3958224F310AF088564
:1018630083198582188008858319858218D2AFC8A9
:10187300F0A3E9F0A3EAF0A3EBF0A37908E709F0FA
:10188300A3D8FAECF0A3EDF0A3EEF0A3EFF0A3D00E
:10189300E0F0A3D0E0F0A3D0E0F0A3E520F0A3E5CF
:1018A300F0F0A322851983851882E0C0E0A3E0F954
:1018B300A3E0FAA3E0FBA37808E0F608A3DFFAE0CD
:1018C300FCA3E0FDA3E0FEA3E0FFA3E0C0E0A3E0F0
:1018D300C0E0A3E0F5D0A3E0F520A3E0A3F5F0106A
:1018E300AF08858319858218800885831985821836
:1018F300D2AFD082D083D0E0F8D0E0327404800637
:10190300740280027401C0E0F4041216C9D0E0121C
:10191300159F227404800474028000CCC0E0EDC0E3
:10192300E0E518C39CCCAD1950011D10AF068C180F
:101933008D1980068C188D19D2AF1215ACD0E0FD2D
:10194300D0E0FC22D083D082E9C0E0E493A3C38635
:10195300F0C5F095F0F908E493A386F0C5F095F08F
:10196300700BE493A3C3994005E9048002A3E475D3
:10197300F002A42582F582E5F03583F583D0E0F902
:10198300E493A3C0E0E493C0E022D083D082ECC010
:10199300E0EDC0E0E493A3FCE493A3FDED4C600D04
:1019A3001219D9EC24FFFCED34FFFD80EFE493A37F
:1019B300FCE493A3FDED4C600D121A18EC24FFFC1C
:1019C300ED34FFFD80EFD0E0FDD0E0FCE493A3C055
:1019D300E0E493C0E022C0E0C3E49396087401936B
:1019E3009618400FE49366700808740193661870A4
:1019F300007019A3A3C3E49396087401939618A3E4
:101A0300A3400DD0E0D0E0D0E00219C9A3A3A3A363
:101A1300A3A3D0E022C0E0C0F088F0E4936670088E
:101A23000874019366187000A8F0A3A3700BD0F09C
:101A3300D0E0D0E0D0E00219C9A3A3D0F0D0E022D7
:101A4400C0E074F2121848A2AFE433FED2AFC2C0B1
:101A5400E5D1A2E4500653D1EF120670EEA2E09253
:101A6400AF7F010218A7C0E074F2121848A2AFE4D5
:101A740033FED2AFE589A2E04006E589A2E1500336
:101A840012061C758900758900C2C5EEA2E092AFEA
:101A94007F010218A7C0E0C0D0E8C0E0E5A8D2AF3B
:101AA400C2C7A2E792AFD0E0F8D0D0D0E032C0E015
:101AB400C0D0E8C0E0E9C0E0C008C009C082C0836B
:101AC400A2AFE433F9D2AF900539E0F8A3E068702F
:101AD40008539AFBA374018026C2E9900539E0F506
:101AE4000874012508F074B92508F58274043400DB
:101AF400F583E0F5C1900539E0C394804002E4F039
:101B0400E9A2E092AFD083D082D009D008D0E0F926
:101B1400D0E0F8D0D0D0E03274F512175CEAFEEBD6
:101B2400FFEE2434F8EF3400F988088909EE2435EF
:101B3400121C54F8EE2437121C54F50AEC850AF0F2
:101B4400A4FCAAF0850AF0EDA42AFDE82CF8E43DF3
:101B5400F97A257B0012160EEA850882850983F03E
:101B64005407F87401B800028004C333D8FCC0E001
:101B7400E0131313541FF8EE28F8EF3400F9E824A7
:101B84005DF582E93400F583D0E0F8E0586008851B
:101B94000882850983801DEE2436121C54F5F0EA70
:101BA40084A8F0EE28F8EF3400F9E82438F582E947
:101BB4003400F583E0F97F0402180874F512175C09
:101BC400EAFEEBFFEE2434121C54C0E0EE2435F59B
:101BD40082EF3400F583D0E0F08E828F83A3A3A339
:101BE400A3A3E0FAA3E0FB8E828F83A3A3A3A3A302
:101BF400A3A3E0FCA3E0FDECC39AF50AED9BF50B6F
:101C0400EE2480F508EF3400F509850882F583E0B9
:101C14006401702BEE2481F582EF3400F5831219F0
:101C24001A121C5D74021216AFE960137C947D08CD
:101C3400EEFAEFFB120EE0850882850983E4F0AC2E
:101C44000AAD0BEEFAEFFB121B1C1221B0021BBAF9
:101C5400F582EF3400F583E022C082C083851882C8
:101C6400851983E0F8A3E0F9C3EA9CEB9D5012C305
:101C7400EC98ED994019C3EA98EB995012790180D8
:101C840010C3EA98EB9940F5C3EC98ED9950EE79BE
:101C940000D083D08222EAC39CFAEB9DFB22000091
:101CA4008521878522C622C0E074EF121848759BEF
:101CB40000906182E0A2E64003021D6CE591A2E679
:101CC4004003021D6C7591BF900759E064057008CC
:101CD40012107E12108A80031210847521001210D3
:101CE400F0E990075AF079001210E4120E4A7A01D2
:101CF4007B00900758E0F912041E907803E06442D8
:101D04006003021DB59008F6E014F06003021DB5EF
:101D1400C2AF121D1900782AD0E0F618D0E0F6E51B
:101D24009F5407F97005908F918003908FCD7808A8
:101D3400121569E9C4C0E07829E65508F50808E6F3
:101D44005509F509740B7808121677D0E02508F8C0
:101D5400906270E0A2E740F8E8C333906272F090BA
:101D64006270E0D2E0F08049E0A2E55024E591A25F
:101D7400E5501E7591DF900759E0640D70139007CC
:101D84007BE004F064287002E4F07A00E0F91211B8
:101D940062906181E0A2E35009E5E9A2E350037592
:101DA400E9F7A3E0A2E75009E591A2E75003759192
:101DB4007F7F040218A7C0E0C0D0C082C0839061B6
:101DC40083E0A2E05009E5BFA2E0500375BFFEE046
:101DD400A2E15009E5BFA2E1500375BFFDE0A2E214
:101DE4005009E5BFA2E2500375BFFBE0A2E350092E
:101DF400E5BFA2E3500375BFF7E0A2E45009E5BFD5
:101E0400A2E4500375BFEFE0A2E55009E5BFA2E5E7
:101E1400500375BFDFE0A2E65009E5BFA2E6500318
:101E240075BFBFD083D082D0D0D0E032C0E074F28E
:101E3400121848E5A7A2E4500FE5A1A2E450095303
:101E4400A7EF75A1EF121E84E5A7A2E5500CE5A14A
:101E5400A2E5500653A7DF75A1DFE5A7A2E150096B
:101E6400E5A1A2E1500375A1FDE5A7A2E2500CE5AE
:101E7400A1A2E2500653A7FB75A1FB7F010218A79C
:101E840074F812175C752101900759E06406700715
:101E94007A007B00121066A2AFE433FED2AF900743
:101EA4005FE0640170187A207B00900758E0F91213
:101EB400049C7A207B00900758E0F9120424906176
:101EC40082E0D2E6F09008F5E0602185C622801613
:101ED40090075EE064017008E5C654F84405F5C651
:101EE40053BEFC121CA47401652160E4EEA2E092CE
:101EF400AF7F0102180800008E238F248582288575
:101F04008327851882851983E0CEA3E0CF852882B4
:101F1400852783EBC9EAC8EDCBECCA75F010C3E89A
:101F240033C8E933C9EA33CAEB33CBC3EA9EF52697
:101F3400EB9FF525B35004AB25AA26EC33CCED3347
:101F4400CDD5F0DAAE23AF242274F112175C8A08DF
:101F54008B098C0A8D0B740F1216E4780C12156918
:101F6400908FB17808121543908FB1780C121543F5
:101F74007808790C12137B50157808790C12151B0C
:101F8400908FA5780812139B401579018013780C63
:101F9400790812151B908FA5780C12139B40EB79CE
:101FA400007F0802180874ED12175C8A088B098CEC
:101FB4000A8D0B74131216E4780C121569908FB104
:101FC4007808121543908FB1780C121543780C7968
:101FD4000812137B40117808790C12151BAA08AB60
:101FE40009AC0AAD0B802275100075110075120042
:101FF4007513017810790C12151B781079081214D6
:10200400E2AA10AB11AC12AD137F0C021808908F2A
:10201400B178081215698A828B8378081215567F65
:102024000402180874F512175C8C828D83780812E8
:1020340015698A828B83780812152F12207CC3E0DD
:1020440098F0A3E09912206E401E908F8D780812AC
:1020540015698A828B8378081215088E828F83E033
:102064002420F0A3E0344EF080A4F08E828F83C34A
:10207400E09420A3E0944E22EA2404F8EB3400F91F
:10208400E8FEE9FF8C828D83A3A3A3A3E0F8A3E079
:10209400F98E828F832274F512175CE9FE9008ABE7
:1020A400E0FAA3E0FBEEC333F8E433F974E728F570
:1020B40082748E39F583E02AF508A3E03BF50978AC
:1020C40008121903908F95121587121EFC740212C0
:1020D40016AF8A088B098C0A8D0B741078081214B9
:1020E400AAAA08AB097F0402180874F112175C8AC3
:1020F4000C8B0D8C0E8D0F740F1216E4E0FAA3E016
:10210400FB74111216E4E0F508A3E0F50974131248
:1021140016E4E0FEA3E0FF7808121903EA2401F5AF
:1021240008EB3400F509E4F50AF50B780C7908128C
:1021340013BA908FED7808121569780C7908121388
:10214400BAAA0CAB0DAC0EAD0F121EFC7402121623
:10215400AF8B09EA450960047A0180027A00EC2A0F
:10216400FCED3400FDECF8EDF97A717B0212160EE9
:1021740088088909E4F50AF50B8E828F83780812A2
:102184001578ECF8EDF97A717B0212160E8A088B39
:1021940009740578081216868E828F83A3A3A3A3DD
:1021A400E508F0A3E509F07F08021808C082C0839F
:0A21B400E9906000F0D083D0822291
:1021C000FFFFFFFFFFFFFFFFC082C083E9900D3AD2
:1021D000F00223E774F71216F0E9900677F07CAF6F
:1021E0007D067AFF7BFF120B7490067874FFF0A3D4
:1021F000F0A3E4F0A3F07905120B02900677E0F962
:10220000120A2A7A8C7B0B120D480230F574F412F4
:1022100016F08A088B09EB54806030900677E0F95D
:102220001204068A0A8B0BAE0AAF0BEE4F60138EB8
:10223000828F83E064B07003120B14EEFAEFFB128E
:1022400003F4AA08E5096480FB80047A007B00029D
:1022500023B674F21216F074FC121699EAFEEBFF24
:1022600074121216E41235DCEE4F70030222F5747C
:10227000021216E4EEF0A3EF1225F1ECF0A3ED123A
:1022800025F1AA82AB83120A24E9F50A706AE508EF
:10229000450960648E828F831235C2EE4F60567A94
:1022A000067B0012045A8A0C8B0DA80CA90DE84974
:1022B0007005750A13804188828983E4122302EE37
:1022C000F0A3EF1235EDE508F0A3E509F090067DE7
:1022D00012238990067D700512309F801B12308D6D
:1022E0008003EAFCEBFD8C828D8312238970F38CD2
:1022F000828D8380E3750A02A90A74041216AF0264
:1023000037DCF0A3123593A32274F21216F0890A77
:10231000E975F017A4FEAFF090067CE4F090067A21
:10232000122389600A12046090067AE4F0A3F0EEAA
:10233000FAEFFB12045A8A088B09EA4509602FEE6E
:10234000FCEFFD79001203E290067AE508F0A3E5C0
:1023500009F07B008008122373E4F0A3F00BEBC3B9
:10236000950A40F2E50A90067CF079008002791324
:102370000237DCEB75F017A4F8A9F090067AE02894
:10238000FAA3E0398A82F58322122D31EA4B2274B6
:10239000F41216F07900EAA2E0501B75086F750977
:1023A0008F78081219037C047D007A3C7B0D120A99
:1023B000FC74021216AF7F040217C2C082C0839061
:1023C000067D1223EE601C88828983A3A3E06A70D5
:1023D00003A3E06B8882898370E8A3A3A3A3122DD3
:1023E0002D80047A007B00D083D082020122123833
:1023F000C2E8492274EE1216F074FC121699EAFE35
:10240000EBFF851882851983E4F0A3F0EE24021215
:10241000307FEE240512359AEE2404F50EEF1229D2
:10242000A6E024FE603924FC604624FE605224FEAF
:10243000605E24FE700302250724FE700302256BF4
:1024400024FE700302257A24FE700302258924FCF1
:10245000700302259824FE70030225A70225E4904C
:1024600006967417F0A3E41225F91207A20225E4D8
:10247000851882851983AC82AD83120B1A0225B4AC
:10248000851882851983AC82AD83120B200225B496
:10249000850C08850D0974021216E4AC82AD8385A3
:1024A0000882850983122D2D120A488A0C8B0DACE7
:1024B0000CAD0DEC4D603BE4F50CF50D780C1219EC
:1024C00003750C96750D06780C121903750C97752B
:1024D0000D06780C12190374081216E412191A1258
:1024E00038E61216AFE9F50C700B122D231207BA5D
:1024F000800F750C018508828509831225E712304B
:102500009F850C080225B774021216E4AC82AD83D5
:10251000850C82850D83122AF8603C850C82850D1E
:1025200083A3A312191A7510967511067810121943
:102530000375109775110678101219037408121696
:10254000E412191A1238E61216AFE9F509700B12E7
:102550002D231207C0800F750901850C82850D831C
:102560001225E712309F850908804C85188285194D
:1025700083AC82AD83120B26803A8518828519833D
:10258000AC82AD83120B2C802B851882851983AC0D
:1025900082AD83120B32801C851882851983AC8230
:1025A000AD83120B38800D851882851983AC82ADFE
:1025B00083120B3EE9F508E50860298E828F83A31C
:1025C000E06414601F850E82850F83E090069612EA
:1025D00025F11238BE90069712309FE508A3122508
:1025E000F912079C022F8E1238C285188285198332
:1025F00022F085188285198322F07C967D06850A53
:1026000082850B83122D312274EE1216F074FC12A7
:1026100016998A0A8B0B8C0E8D0FEA2405F508EBB0
:102620003400F5097C157D0079007A967B0612034B
:10263000E2E5082402F50CE50912359D851882852E
:1026400019838582108583117810121903850882F9
:10265000850983A3A3A3A3122AEF121903E5082473
:1026600005F510E5093400F5117810121903850CF1
:1026700082850D83122E44120A4274061216AF8A06
:10268000108B11AE10AF11E50A2402F50AE50B120A
:102690003082EE4F70030227C6801774021216E4D0
:1026A000122D2D88828983EAF0A3EBF0900696E044
:1026B00004F0900696E0C3940540030227C6E4F5B3
:1026C00010F511781012190375107F751106781026
:1026D000121903751080751106781012190374060B
:1026E0001216E412191A7910EEFCEFFD1238E812F6
:1026F00016AFE9705E850882850983A3A3A3A3A30F
:10270000A3A3E0F890067FE0687048122AEF121940
:10271000037C807D06E5082408FAE5093400FB12F5
:1027200003DC74021216AFE960298E828F83A3A3A3
:10273000A3A3122D2D900696E0F5107402781012C6
:10274000168674972510F58274063511F583EAF024
:10275000A3EBF074021216E48582108583117810C1
:1027600012190374021216E412191A850C82850DCF
:1027700083122D531216AF8A108B11AE10AF119029
:102780000696E0F510751100740278101216867422
:10279000962510F874063511F988828983A31223CF
:1027A000897003022692E82403080808E93400F936
:1027B000EE4F600302269B8882898374FFF0A3F0AA
:1027C000900696E004F0900696E0600A122D23121F
:1027D00007AE7900800B85088285098312309679CF
:1027E0000A022F8E74EA1216F074FE1216998C12D9
:1027F0008D13EA2405F50CEB1238D01235C6750896
:1028000000750900EA2402F510EB3400F511851873
:102810008285198385820A85830B780A12190385BC
:102820000C82850D83A3A3A3A31229BC121903E56F
:102830000C2405F50AE50D123082780A1219038579
:102840000C82850D831229C0120A4274061216AF3B
:102850008A0A8B0BEA450B7003022961EA2404F50E
:102860000EEB1229A61235C68A828B83A3A3A3E09E
:10287000F9851082851183122D376003022961E4E6
:10288000F514F515781412190375147F751506786B
:10289000141219037514807515067814121903742F
:1028A000061216E412191A7913AC0AAD0B851082C0
:1028B0008511831238EE1216AFE9F509600302297B
:1028C0006190067FE0F8E5087009E0240290069721
:1028D000F08014900697E0FCE82402FAE43400FB50
:1028E000EA6C7001EB707E850882AA82122AE69457
:1028F00014122ADE506B850E82850F83E0C0E074CF
:10290000982A12299DD0E0F00508850E82850F8354
:10291000A3E0C0E085080A7498250A12299DD0E03A
:10292000F0050890067F1229BC1219037C807D06F1
:1029300085080A7498250A1229B01216AF90067FEE
:10294000E02508F50874FF6E700374FF6F6012EEE7
:1029500024010EEF3400FFE508C39414500302284D
:102960000EE5086013122D41851082851183122D0A
:102970002D1207B479008014E509700375090A85E2
:102980001282851383EEF0A3EFF0A90974021216E8
:10299000AF7F0E0217C285080C7498250CF582745F
:1029A000063400F583223400F50F850E82F583226C
:1029B000FA74063400FB1203CA7402221235FC2298
:1029C000A3A31229C62212308DFDEEFAEFFB22746A
:1029D000EE1216F074FE1216998C0E8D0FEA240575
:1029E000F50CEB12359D750B00900696E4F0F50A98
:1029F000EA2402F508EB3400F5098044900696E0DD
:102A0000FA90067FE0F8122AE69417122ADE400DAB
:102A1000900696E0F87416C39890067FF0122AEF9D
:102A20001219037C807D0674972AFA74061229B362
:102A30001216AF90067FE0F8900696E028F0050A9F
:102A4000E50C2416F582E50D1229A1E0F8E50AC38C
:102A5000985074900696E0C39416506BE50AC33301
:102A6000F8E433F9E50C28FEE50D39FF8518828579
:102A70001983AC82AD838E828F83122AF870087519
:102A80000B011230928050E4F510F51178101219F4
:102A90000375107F75110678101219037510807573
:102AA0001106781012190374061216E412191A7915
:102AB000168508828509831238EE1216AFE9F50BE8
:102AC00070030229FC80BB7C967D068508828509FF
:102AD00083122D2D1207C6A90B7402022F90E994C0
:102AE00000C365D03322EA28F8E43400F9E822E094
:102AF000F510751100781022122F858A108B11ACF9
:102B000010AD11EC4D2274EA1216F074FC121699F5
:102B10008A0C8B0D8C128D13EA2405F50AEB12300A
:102B200082750800750900E50A2402F510E50B34EA
:102B300000F51174021216E485820E85830F780E5B
:102B4000121903850A82850B83A3A3A3A31235A2BE
:102B5000121903E50A2405F50EE50B3400F50F788C
:102B60000E121903851082851183123088122D27C9
:102B7000120A4274061216AF8A0E8B0FAE0EAF0FFA
:102B8000E50C2402F50EE50D3400F50F803888823F
:102B9000898374FFF0050812299674FFF0050890E8
:102BA000067FE0F50C750D00780C1219037C807D12
:102BB0000685080C7498250C1229B01216AF9006E1
:102BC0007FE02508F508EE4F60278E828F83A3A350
:102BD000A3E0F9850E82850F83122D37EE240412AF
:102BE000359AE96027850C82850D83122D191230E4
:102BF0009FE5087003022CFF122D41850E82850F80
:102C000083122D2D1207CC7900022D14E4F514F552
:102C100015781412190375147F7515067814121996
:102C200003751480751506781412190374081216AA
:102C3000E412191A7911EEFCEFFD850E82850F83DF
:102C40001238EE1216AFE9F509709A850882AA8249
:102C5000EA90067F7009E02404900697F08025E052
:102C6000F8900697E0F514E82404FCE43400FDEC49
:102C700065147001ED7081122AE69412122ADE406A
:102C800003022BF8850C82850D83E0C0E074982A3E
:102C900012299DD0E0F00508850C82850D83A3E004
:102CA000C0E0122996D0E0122D5C85820C85830D40
:102CB000780C12190374041216E412191A85108282
:102CC000851183122D531216AF8A0C8B0DAE0CAFEB
:102CD0000D85080C7498250CF874063400F9EE4F35
:102CE0007003022B8E851882851983E08882898380
:102CF000122D5CA3E0C0E0122996D0E0022B9CE5E7
:102D000009700375090A850A82850B83122D191231
:102D1000309FA909740402298E1238C28512828557
:102D20001383227C967D06850A82850B83122D31C2
:102D300022E0FAA3E0FB22122D31120A30E9F50954
:102D400022900697E0F5F0E50884900696F07C96D0
:102D50007D06221229C6120A4E740422F005088547
:102D600018828519832274EC1216F074FE121699DB
:102D70008A088B098C0E8D0FEA2405FEEB3400FFC8
:102D8000122F6FEE241812359AEA450B7003022EAB
:102D900012122F585029122E378A108B11EA451122
:102DA000606B7912AC0AAD0B850882850983122D00
:102DB0002D8510828511831216EEE9F50A7058E40C
:102DC000F50AF50B780A1219038E828F83A3A3E00C
:102DD000F50A780A121903EE240312307F780A12DA
:102DE00019038E828F83122E44120B627406121600
:102DF000AFE9F50A7021850C82850D83E0701F858F
:102E00000882850983122D2D1207D28011750A0EB2
:102E10008009750A018004E50A6003123092850C6E
:102E200082850D83E0600479008002A90A74021291
:102E300016AF7F0C0217C2851882851983122D31B7
:102E4000120B502212308DFD850882850983122DC8
:102E5000312274EE1216F074FE1216998A088B094C
:102E60008C0C8D0DEA2405FEEB3400FF750E00126C
:102E70002F6FEA450B7003022F36122F58502C1279
:102E80002E378A0E8B0FEA450F604A7912AC0AADD5
:102E90000B850882850983122D2D850E82850F836F
:102EA0001216EEE9F50E6003022F398508828509B6
:102EB00083123174AA0AFB122F4A70147AFF7BFF27
:102EC000122F4A606C88828983E50AF0A3E50BF033
:102ED000750A008007750E0E805F050A90067CE07B
:102EE000FAE50AC39A504AE50A75F017A4FAABF05E
:102EF00088828983A3A3E02AFAA3E03BFB8A828B22
:102F000083123088EC4D70D2750A17750B00780A61
:102F1000121903EEFCEFFD1203CA74021216AFEE93
:102F2000FCEFFD850882850983122D2D1207D880BC
:102F300014750E098003750E011238BA850C82854E
:102F40000D8312309FA90E022AD9120B448A108BCE
:102F500011A810A911E84922E5082402F508E5099D
:102F60003400F5098A828B83A3A3A3E0A2E522851E
:102F70001882851983AC82AD838E828F83122F8550
:102F80008A0A8B0B22E0FAA3E0FB120A482274049F
:102F90001216AF7F0A0217C274EC1216F08C108D55
:102FA00011EA2405F50CEB12359D750F00EA240299
:102FB000F50AEB123082850A82F583122D2D123923
:102FC000747003023074750E008071850C82850D5B
:102FD00083E06401704F8E828F83A3A312191A8E2F
:102FE000828F83A3A3A3A3E0F512751300781212B6
:102FF0001903EE2405F512EF3400F51378121219B7
:1030000003122D27120B6274061216AFE9F50F603A
:1030100014850C82850D83E4F01238BA8510828500
:10302000118312309F7C177D007900EEFAEFFB12BE
:1030300003E28E828F83E4F0A3F0050E90067CE01D
:10304000F8E50EC398501EE50E75F017A4F8A9F028
:10305000850882850983A3A31238DA123088EC4DE3
:103060006003022FCB85088285098374FFF0A3F0EB
:10307000E50F7006122D271207DEA90F022E32F57A
:103080000AEF3400F50B22A312308DFD22E0FCA3E1
:10309000E0228E828F831238C2850E82850F83E8EC
:1030A000F0A3E9F022C082C083900678E06A700342
:1030B000A3E06B70067A787B0680047A007B0002BE
:1030C00023E774F71216F07F00EF75F003A4F8A958
:1030D000F0EC28F8ED39F988828983E06A7003A35F
:1030E000E06B7006E8FAE9FB800B0FEFC394024037
:1030F000D87A007B007F010217C274F61216F01214
:1031000036AB70067A007B008007A3A3A3A3122D21
:103110002D02376C74F21216F0E9FE740E1216E4EA
:1031200012317474101216E41235DC8C828D83E037
:103130006402703BA31238BE88828983E0F50CA339
:10314000E0F9A80C74026870037429697021750C89
:1031500002750D00780C1219037808121903780A09
:10316000121903EEF9120B8674061216AF8002795B
:10317000010237DCE0F50AA3E0F50B2274E8121631
:10318000F074FB121699E9851882851983F08A1666
:103190008B178C0E8D0F741F1216E41235DC742100
:1031A0001216E412317474231216E41235C6751027
:1031B000008C828D83A3A3A3E0A2E4502A741D1285
:1031C00016E4122E3D8A828B83E5824583700302CA
:1031D0003288790AAC0EAD0FAA16AB171216EEE9BB
:1031E000F510600302328B850E82850F83E0640246
:1031F0006003023541A31238BE850882850983A386
:10320000858212858313E50E2406F50CE50F123531
:103210009D88828983E0FAA3E0F9EA2400F514E4AA
:1032200039F515781412198D010000280128503243
:103230000700022827330328973200295134012937
:10324000793402292034032951340429E2344135E8
:10325000EE4F703E850C82850D831235B7FAE9FB7F
:103260008A828B83E0850A82850B831235F31219DB
:10327000038A828B83A312308DFDAA08AB09120347
:10328000CA74021216AF800375100EA910740502DD
:1032900038C875100B80F4EE4F70F7850A82850BE5
:1032A000837401F01235CC850882850983F07C0097
:1032B0007D00850E82850F83A3A3A3A3E02401FADA
:1032C000A3E03400FB120A48EA4B60418A828B83F8
:1032D000E02402F8850A82850B83E028F0EA2404C2
:1032E000F8EB3400F988828983E0851282851383A4
:1032F0001236051235F31219038A828B8312308736
:10330000E5082403FAE5093400FB02327E850A82CF
:10331000850B83E02404F07C047D007900AA12ABC5
:10332000131203E202328BEE4F6003023292123527
:10333000CCFEA3E0FF850A82850B837404F0EE8542
:103340000882850983F0EF851282851383F0740368
:103350001216E4AC82AD83EEFAEFFB1236997003DD
:103360000233FD8A828B83A3A31235C27401121625
:10337000E485820E85830F780E12190374051216E8
:10338000E412191A7CFF7DFF120A4E74041216AF64
:103390008B0FEA450F7033850C82850D831235A2A1
:1033A000121903850C82850D83A312191A7C027DE4
:1033B000007A387B9012087A74041216AFE9700A0A
:1033C00074011216E474FFF0A3F08E828F83E06420
:1033D000027034750C02750D00780C1219038E8280
:1033E0008F83123087E5082404FAE5091229B31205
:1033F00016AF850A82850B83E024028009740112CE
:1034000016E4EEF0A3EFF074011216E41235B3F0F7
:1034100074011216E4A31235ABA3A3A3F002328BFE
:10342000EE4F6003023292850C82850D8312308844
:10343000AA16AB17120B7A850A82850B837402F0E9
:10344000EA850882850983F0851282851383EB80E3
:10345000CBEE4F60030232921235CCF8A3E0F9852F
:103460000A82850B837402F0E8850882850983F05F
:10347000E985128285138380A3850C82850D8312D2
:103480002D2D1203C4EAFC8C82A882C39EE49F40C7
:103490004BE86E7001EF70047C00801F85188285F8
:1034A0001983E0FAEE2AFAEF3400FBC3EA98EB94B2
:1034B000005003E08004EECCC39CFCEC850A8285BE
:1034C0000B83F08C0A750B00780A121903850C82A5
:1034D000850D83E02EFCA3E03F02327975100702D0
:1034E000328BEE4F6003023292850C82850D83127F
:1034F00038BE850A82850B837407F088828983121F
:1035000035AB123593E0851282851383F0E82402EF
:10351000FAE93400FB8A828B831235AB1235E41250
:1035200035B3A31235ED1235BCF0E82405F8E934C3
:1035300000F9888289831235BCA3123605A30234B0
:1035400019741D1216E41236A47003023288123860
:10355000BE880C890DE8450D70030232888E108FED
:10356000117810121903780A121903780812190336
:1035700074061216E4E0F9AC0EAD0FAA16AB17856F
:103580000C82850D831216EE74061216AFE9F51043
:1035900002328BF088828983A322F50CEF3400F588
:1035A0000D22E0F50E750F00780E22E08508828569
:1035B00009832212360C221238C2E82212360CA3DA
:1035C000A322A3A3A3A3E0FEA3E0FF22850C828590
:1035D0000D83E0F8A3E0F5838882E022E0F508A3FC
:1035E000E0F50922A3A3F08A828B83A3221223048D
:1035F000A3A322F08A828B831235FC22E0F50A75A0
:103600000B00780A2212359312360C22E0850882CC
:10361000850983A3A32274EE1216F074FE12169984
:103620008A0A8B0BECFAEDFB74141216E4E0F51029
:10363000A3E0F51174161216E4E0FE74181216E4F5
:10364000E0F50EA3E0F50F851882851983AC82ADF5
:1036500083123699603E8518828519831236A460DC
:103660002FA3A31235DCE50845096024780E121952
:10367000037810121903EEF9AC0CAD0DAA0AAB0BCE
:103680008508828509831216EE74041216AF80062F
:10369000790E80027901022AD9120A488A0C8B0D10
:1036A000EA450D22122D311236AB22120B0E8A8200
:1036B0008B83E58245832274F61216F074FE12168F
:1036C00099740C1216E41235B7851882851983F0A7
:1036D00074011216E4E9F0E4F508F5097808121906
:1036E00003750802780812190374041216E485821F
:1036F000088583097808121903120B6274061216E2
:10370000AF74021216AF806474F71216F0EAFEEB83
:10371000FF89087CAF7D06120B7AEA5402600BA980
:1037200008EEFAEFFB120A3C800279010230F574D0
:10373000F61216F074FF6A700374FF6B701C7B0046
:10374000EB75F003A4F8A9F0EC28F8ED39F912377D
:10375000710BEBC39402501480E6120B4A8A088B5B
:1037600009A808A909E84960031237717F02021706
:10377000C28882898374FF122302E4F02274F61255
:1037800016F0120B4A8A828B83E58245836006A37A
:10379000A3E0FA80027A007B0080D174F21216F066
:1037A0008A088B09ECFEEDFF740E1216E4E0F50AB0
:1037B0001237E1701CEEFCEFFD7AFF7BFF1237E160
:1037C00070047911801688828983E508F0A3E509E1
:1037D000F088828983A3A3E50AF079007F060217A7
:1037E000C2120B4A8A0C8B0DA80CA90DE849227451
:1037F000EE1216F0EAFEEBFF8C088D09890C7412AC
:103800001216E41238BE74141216E41230887416BC
:103810001216E4122D2D750D00EC4D60030238B226
:103820007402650C60030238AD8882898312308D82
:10383000F9EC2400F50EE439F50FEAF4F8EBF4F9AD
:10384000EC58F8E50F59F9E849705DE5082406F8E9
:10385000E5093400F9880A890B8882F5831229C2A8
:10386000120B7A8A108B11E50E65107004E50F6556
:10387000116042780E121903850A82850B83122982
:10388000C2120B8074021216AFE9F50D7027780E84
:10389000121903850882850983A3A31229C0120B7C
:1038A0009274021216AF800D750D808008750D0D93
:1038B0008003750D0BA90D022F938E828F83123812
:1038C000C222E0F8A3E0F9221216AF7F100217C25D
:1038D0003400F50D850C82F58322E028FEA3E03943
:1038E000FF8E828F83227916850A82850B83122DA3
:1038F00031120B5C74082274F21216F0EAFEEBFF30
:10390000890B7401650B600E7402650B706379019D
:10391000120D66E9705BEEFAEFFB123974604775C1
:103920000A00800B7C177D0079001203E2050A90E3
:10393000067CE0F8E50AC3985021E50A75F017A463
:10394000F8A9F0850882850983A3A3E028FAA3E0FB
:1039500039FB8A828B831223EE70C9850882850920
:103960008374FFF0A3F07CAF7D06EEFAEFFB120B41
:10397000740237DC120B448A088B09EA4509227469
:10398000F21216F08A088B09ECFEEDFF740E121687
:10399000E4123174900D3AE0F4603D7A097B001234
:1039A00003EEEA4B60328A828B8374B1F0A3E41297
:1039B00035E6A31235E4A3E508F0A3E5091239DBE7
:1039C000EEF0A3EF1239DBA3A3E50AF0A3E50BF0B9
:1039D000900D3AE0F91203FA0237DCF08A828B8309
:1039E000A3A3A3A3A32274F41216F0E9FF7E008A16
:1039F000088B09780812194700040D973B193A35CE
:103A00003A4A3A5F3A743A893AA53ABE3AD03AFE0F
:103A10003A203B3C3B583B763B74016F70128C82E2
:103A20008D83E0C394035008E0900BCDF0023BB5CA
:103A30007E18023BB574026F70F68C828D83124241
:103A4000F3900BCEE8F0A3E980E274016F70E18C93
:103A5000828D83E0C3940250D7E09002B680CD748B
:103A6000016F70CC8C828D83E0C3940550C2E090CE
:103A700002B780B874016F70B78C828D83E0C394F5
:103A80000250ADE09002B880A374106F70A2750868
:103A9000108E0978081219037AB97B021246B71200
:103AA00016AF023BB574016F70868C828D83E0C3C4
:103AB00094024003023A30E09002C9023A2C7401A9
:103AC0006F6003023A308C828D83E0900BD1808D41
:103AD00074046F6003023A30908F9578081215696C
:103AE0008D838C82780812138B4003023A308C82CB
:103AF0008D831215879002CB121593023BB5EF60B0
:103B000003023A301209E8E9700E12058C7950125E
:103B1000075A120580023BB590035E7401023A2CED
:103B200074016F6003023A308C828D83E0C394028B
:103B30004003023A30E09002CA023A2C74016F60EE
:103B400003023A308C828D83E0C3940A4003023A28
:103B500030E0900BD0023A2C74016F6003023A30CF
:103B60008C828D83E024F9C3940A4003023A30E04A
:103B7000900BD2023A2C74016F6003023A3090032A
:103B80005DE0F88C828D83E090035DF0E87026E0C4
:103B900064017021023B12C3EA9426EB9400501397
:103BA00074026F700E8C828D831242ED120886E9CA
:103BB000FE80020E0EEEF9023BBF740E1216AF7FAE
:103BC000040217C274F01216F074CC1216998C0A03
:103BD0008D0B74441216E4E0FE74201216E4AC82DD
:103BE000AD8375838F75828174061215AC742012B3
:103BF00016E4AC82AD83120532E9F508C3940A409D
:103C000003023D2875F006E9A4F50974261216E4AE
:103C1000AC82AD837A0E7420250912476F70097447
:103C2000321216E4E0FF80027F00900BCDE06402C8
:103C3000700474018001E4F50D780D121907EEFD92
:103C4000EFFCA908AA0AAB0B1205B674011216AF55
:103C50007C147D007900740C1216E4AA82AB8312E6
:103C600003E2740C1216E4AC82AD837A107424253E
:103C70000912476F70377C1079FF740C1216E4122A
:103C8000449C7029741C1216E4AC82AD837A0474CF
:103C9000252509F9120754740C1216E4AC82AD8381
:103CA000EFA2E0E433F9AA0AAB0B120910851882DF
:103CB000851983AC82AD837A0C7470250812476F26
:103CC0007055851882851983AA82AB8312056275A7
:103CD0000800E50875F003A4F8A9F0851882851995
:103CE00083E58228F8E5831244D81242EDEC4D605A
:103CF0001D88828983A3A3E0F50E750F00780E124C
:103D00001903AA0AAB0B120B6874021216AF05084E
:103D1000E508C3940440BBEFA2E1500C9002B5E06B
:103D2000F9AA0AAB0B120B6E74046E702A900BCDBD
:103D3000E0640270229002C9E060047A0180027A95
:103D4000009002B6E06004780480027800E84AF946
:103D5000AA0AAB0B1209D0790074341216AF7F088F
:103D60000217C274F01216F0EAFEEBFF8C088D0900
:103D7000750A0AE9600C14600914602E14607F0251
:103D80003E09120574E9F50AC3940A507CE508451A
:103D9000096076750E06750F00780E121903EEFC99
:103DA000EFFD1246B31216AF805F750B00750E065D
:103DB000750F00780E121903EEFCEFFDE50B75F0A0
:103DC0000EA4F8A9F074D728FA740239FB1203DCA8
:103DD00074021216AFE9601B850B0AE50AC3940A48
:103DE0005027E50845096021AA08AB09A90A120570
:103DF0006E8016050BE50BC3940A500D80AF1205BB
:103E00007AE9F50AC3940A40D9A90A023D5E74F41E
:103E10001216F0890875091574FF6A700374FF6B38
:103E200070277E00AC087A027B00EEF9120550E99B
:103E300060037509000EEEC3940A40E8E508604986
:103E40007AA47B05120D788040120D5A8A0A8B0BDA
:103E5000AE0AAF0BEE4F602E7C007D00EE2405FA1B
:103E6000EF3400FB8E828F83123F05500CAC087A32
:103E7000027B00120550750900E508600CEEFAEFB0
:103E8000FB1205A48003750914A909023BBF74F253
:103E90001216F0ECFEEDFF740E1216E41242E075FD
:103EA000081574FF6A700374FF6B7021750900AC0C
:103EB0000AAD0BEEFAEFFBA909120556E96003758E
:103EC00008000509E509C3940A503580E2120D5A2D
:103ED0008A828B83E582458360237C007D00E582B6
:103EE0002405FAE5833400FB123F055013AC0AADFC
:103EF0000BEEFAEFFB1205567508008003750814E7
:103F0000A908024CDEA3A3A3A3E0F9120532E9C37A
:103F1000940A22C082C0839002CFEAF0A3EBF09013
:103F200002B5E0FC7D007A257B001208869002B580
:103F3000E0F9120AEAD083D08202012274EA121652
:103F4000F074EC121699EAFEEBFFEE240CF514EF78
:103F50003400F515EE240AF510EF3400F511EE24C7
:103F600005F50EEF3400F50FEE2409F50AEF3400E5
:103F7000F50BEE2403F508EF3400F5098E828F83EC
:103F8000A3A3E024FA70030242A924FD70030241B6
:103F9000D814700302402714601024FD70030241FE
:103FA000A914700302420D0242C712430C604AE09A
:103FB000F58388821242F3880C890DE8450D60393B
:103FC000851482851583E0F50E780E121907EE240C
:103FD0000BF582EF3400F583E0F9850A82850B83C7
:103FE0001242ED0A0A0AAB09850C82850D8312166E
:103FF000EE74011216AF0242C7850A82850B831246
:10400000191A9002CB12158712092274021216AFE8
:10401000E970030242C77901850A82850B83124B3E
:104020000312091C0242C78E828F83A385821285E8
:104030008313E06003024182850E82850F83E0A234
:10404000E040030241827C0E7D0079008518828564
:104050001983AA82AB831203E2EE2408F50AEF3437
:1040600000F50B850A82F58312430F6019750C0663
:10407000750D00780C121903850A82850B83E024E4
:1040800010FCA3E0801A1242D1EA4B70030242C72F
:10409000750C06750D00780C121903EA2405FCEB6B
:1040A0003400FD74021216E4AA82AB831246B712E2
:1040B00016AF850E82850F83E0A2E25004D2F08015
:1040C00002C2F0A2F0E433F8740C1216E4E048F0F7
:1040D00085108285118312430F601585108285112A
:1040E00083E02410F8A3E03400F9888289838003F8
:1040F000908F8D780C12156985108285118312437B
:104100000F600F851082851183E0F510A3E0F51193
:104110008006751000751100850A82850B83124395
:104120000F600B850A82850B831242E08006750AB8
:1041300000750B00780C1218FF7810121903780A1A
:1041400012190385148285158312191A8E828F83A2
:10415000A31242E8740A1216E4AA82AB831205681D
:10416000740A1216AF8508828509831242F3900300
:104170005FE8F0A3E9F07A017B009002B5E0F91264
:10418000041E12430C70030242C71242F97003026C
:1041900042C7851282851383E0FC7901124AFD8EA5
:1041A000828F831216EE0242C712430C7003024242
:1041B000C7E0F5838882A3A31242F3890BE8450B7D
:1041C00070030242C78E828F83A3E0FC7902124AF9
:1041D000FD8882850B8380CB7C007D00EE2404FA71
:1041E000EF3400FB850882850983E0F9120532E986
:1041F000F8C3940A40030242C7AC10AD117A0475AB
:10420000F006E8A42425F912074E0242C79002CA1C
:10421000E0600E900BD0E0F98508828509830240AA
:104220001E900BCDE07004790580ED1242D18A0C0E
:104230008B0DA80CA90DE82404F50CE93400F50D4C
:104240008E828F83A3A3A3A3A3A3A3E0A2E05036EF
:10425000E8496073850C82850D83E0FE6028850A3D
:1042600082850B83E05410701D740E1216E4AC822C
:10427000AD83E82405FAE93400FBEEF9120532E9D2
:10428000700479038092AC0EAD0F850C82850D838E
:10429000E0F9124AFD1205B012430C602A1242F9ED
:1042A00060257C00790002419C1209E8E9701890B1
:1042B000035EE06401700812058C90035EE4F079FF
:1042C0005012075A12058074141216AF7F0E02178F
:1042D000C2850882850983E0FAA3E0FB120D5A2209
:1042E000E0F50AA3E0F50B22A3A3A3A3A3E0FCA39C
:1042F000E0FD22E0F8A3E0F922E0F5838882A3A3A1
:10430000E0F8A3E0F9E8FEE9FFEE4F229002CFE0EB
:10431000F8A3E0F9E8492274F41216F074F21216C8
:1043200099EAFE8C0B75F006E9A42420F50885189F
:1043300082851983AC82AD837A0E12476F704A7CF6
:10434000061244947043740C1216E41242F3E8F51A
:1043500009E50B6005EE42098004EEF45209850977
:1043600082AA82E86A7001E9601B740C1216E4EA02
:10437000F0A3E4F0851882851983AC82AD837A0EB0
:10438000A90812074E790180027900023BBA74F243
:104390001216F074E6121699890A8A088B09ECFE47
:1043A000EDFF740C1216E412476260030244487C6D
:1043B0000679FF740C1216E412449C600302444810
:1043C0007470250AF50B851882851983AC82AD833C
:1043D0007A0C12476F600302448D85188285198319
:1043E000AA82AB83120562E508450970217C0C792D
:1043F00000124496600302448D7C0C7D0079008598
:104400001882851983AA82AB831203E28061851822
:1044100082851983AC82AD83AA08AB0912055C8A38
:104420000C8B0DA80CA90DE849702CEE4F60198576
:104430001882851983AC82AD837A007B0012055CFB
:10444000EAF8EBF9EA4B70047900804388828983AB
:10445000E508F0A3E509F0124514FAEE6A7001EFE1
:10446000602BEEF04F700888828983E4F0A3F0851A
:104470001882851983AA82AB83120562851882850A
:104480001983AC82AD837A0CA90B12074E790174A3
:104490001A024CDB79FF851882851983AA82AB83C7
:1044A000120442E92274F71216F07F00EF75F00350
:1044B000A4F8A9F0EC28F8ED1244D8E06A7003A340
:1044C000E06B7006E8FAE9FB800B0FEFC394044041
:1044D000DB7A007B0002480D39F9888289832274D7
:1044E000F71216F07E00EE75F003A4F8A9F0EA28A2
:1044F000F8EB1244D8E0F4FCA3E0F4FD8882898351
:10450000ECF0A3EDF0124514F4F00EEEC394044069
:10451000D502480DE82402F582E93400F583E02253
:1045200074EE1216F074F4121699EAFEEBFF8C0A80
:104530008D0B741E1216E4E0F50CA3E0F50D74204B
:104540001216E4E0F508A3E0F50974221216E4E07F
:10455000F510A3E0F511EE4F7005790A02464512F9
:104560000574E9F50EC3940A4023750F007C0679A3
:10457000FFE50F75F00EA4FAABF074D12AFA7402BD
:104580003BFB1244A0700302464F850F0EE50EC39D
:10459000940A400302464375F006E50EA4F50FEEBB
:1045A000FCEFFD7A0E7420124660E50A450B600BA5
:1045B000AC0AAD0B7A1B7421124660E50C450D6008
:1045C0000BAC0CAD0D7A1B7422124660E508450950
:1045D000600BAC08AD097A107423124660E51045F3
:1045E00011601BAC10AD117A107424124660742453
:1045F0001216E4AC82AD837A0474251246607C0CFA
:104600007D0079FF124D6C7A0C7470250EF912073B
:104610004E75080E7509007808121903EEFCEFFDBF
:10462000E50E75F00EA4F8A9F074D128FA740239D9
:10463000FB1246B71216AF90035DE060031205BC93
:104640001205AAA90E740C1216AF7F0A0217C20532
:104650000FE50FC3940A500302456D750E0A80E3FF
:10466000250FF912074E2274F41216F074F2121686
:1046700099EAFEEBFFE9C3940A5004EE4F70047907
:1046800002802D851882851983124762F508701EF5
:10469000750A06750B00780A12190374021216E4E3
:1046A000AC82AD83EEFAEFFB1246B71216AFA90843
:1046B000023BBAAA08AB091203CA74022274F412AC
:1046C00016F0EAFEEBFF750800750A06750B007818
:1046D0000A121903EEFCEFFDE50875F00EA4F8A927
:1046E000F074D128FA740239FB1203DC740212163A
:1046F000AFE96004A908800B0508E508C3940A40E7
:10470000C8790A023BBF74F71216F074F0121699BA
:10471000EAFEEBFF750800851882851983AC82AD2F
:10472000837A1075F006E508A4242312476F701FE2
:104730007C101244947018EEFCEFFD8518828519E8
:1047400083AA82AB831208F2E97004A908800B05E2
:1047500008E508C3940A40BF790A74101216AF0224
:10476000480DAC82AD837A0E75F006E9A42420F9D9
:10477000120754E92274F71216F0750800E508755F
:10478000F00EA4F8A9F074D128FE740239FFEEFCF3
:10479000EFFD7A0E75F006E50812476C602C7C067A
:1047A0007D0079FFEEFAEFFB1203E27C067D0079D3
:1047B000FFEE2406FAEF3400FB1203E2EE240CF5C0
:1047C00082EF3400F583E4F0A3F00508E508C39414
:1047D0000A40AA90035DE060031205BC1205AA809E
:1047E0002C74F71216F07E007F007C0679FFEF75BF
:1047F000F00EA4FAABF074D12AFA74023BFB124417
:10480000A070010E0FEFC3940A40DFEEF97F0102A2
:1048100017C274F71216F07E00EEF91205920EEE32
:10482000C3940A5003E960F180E374F31216F07444
:10483000CB121699E9FF75F006A4F5087420250837
:10484000FE74271216E4AC82AD837A0EEE12476F27
:10485000600302492C7C0679FF74271216E4124487
:104860009C600302492C7C0E7D0079FF7427121690
:10487000E4AA82AB831203E27C1B7D0079FF740CF7
:104880001216E4AA82AB831203E27C0C7D0079FF4E
:10489000851882851983AA82AB831203E2742712DA
:1048A00016E4AC82AD837A0EEEF912074EE9F509F3
:1048B000740C1216E4AC82AD837A1B742112493B4E
:1048C000FE740C1216E4AC82AD837A1B742212497A
:1048D0003BF50A740C1216E4AC82AD837A10742393
:1048E00012493BF50B740C1216E4AC82AD837A10BE
:1048F000742412493BF50C740C1216E4AC82AD839F
:104900007A04742512493BF508851882851983AC11
:1049100082AD837A0C74702FF912074EE9F8EE45D8
:104920000A450B450C45084842098003750900A952
:104930000974351216AF7F050217C22508F9120750
:104940004EE92274F71216F0E99002B5F0120580D4
:1049500002480D74F21216F074FB1216998A088B35
:1049600009EB548070030249F79002B5E0F9120494
:10497000068A0A8B0BA80AA90BE8FEE9FFE8496042
:104980006CEE2404F8EF3400F98E828F83E024501B
:10499000603814600624E1604A804B88828983E095
:1049A00070448E828F83A3A3A3A3A3A3A312191A77
:1049B0008E828F831242E88E828F83A3A3124B03D1
:1049C00012053E74021216AF801C88828983E0644F
:1049D0001E701379008E828F83A3A3124B031205DE
:1049E00038800312054AEEFAEFFB1203F4AA08E539
:1049F000096480FB024AF8EAA2E04003024AF4900C
:104A0000035F1242E074031216E485820C85830D65
:104A1000780C121903750C02750D00780C1219032D
:104A2000750C34750D90780C1219037CFF7DFF7A9C
:104A3000017B00120A4274061216AF024ADCE4F54A
:104A40000CF50D780C12190374041216E485820C0F
:104A500085830D780C12190374041216E485820CF8
:104A600085830D780C12190374091216E412191AB1
:104A70007902EEFCEFFDAA0AAB0B120B5C74081274
:104A800016AFE97035851882851983E0FA74011232
:104A900016E4E0F9EA2400F50CE439F50DEA450DD9
:104AA0006018780C1219038E828F831242E9AA0AC9
:104AB000AB0B12053E74021216AFE4F50CF50D783F
:104AC0000C12190374051216E412191A7CFF7DFFEB
:104AD000EEFAEFFB120A4E74041216AF8A0C8B0D1D
:104AE000AE0CAF0DEE4F6003024A3EE5086401FADA
:104AF000AB0980047A007B007405024CDB850882D8
:104B0000850983E0FAA3E0FB22C082C0839002B54E
:104B1000E0F98A828B83A3124B03120B6E023F359E
:104B2000C082C08374FF121699120586E9C39402ED
:104B3000851882851983400474028002740AF0ACDF
:104B400082AD837A017905120A0074011216AF0250
:104B50003F3574F21216F074E8121699EAFEEBFF74
:104B6000890A8C088D097C187D007900124D74EE3D
:104B7000F0A3EFF09002B7E0C0E074021216E4D0A8
:104B8000E0F09002B8E0C0E074031216E4D0E0F068
:104B9000900BD2E0C0E074171216E4D0E0F0741568
:104BA0001216E4E054FEF8A3E0F9900BD1E0A2E085
:104BB000E433FAE84AF874151216E4124CEAA2E15A
:104BC0005004D2F08002C2F0E854FDFAA2F0E433BF
:104BD00033F8EA48F874151216E4124CEAA2E350CE
:104BE00004D2F08002C2F0E854F7FAA2F0E433F500
:104BF0000C750D007403780C121686124CE3121615
:104C0000E4124CEAA2E45004D2F08002C2F0E8546C
:104C1000EFFAA2F0E433F50C7404780C1216861245
:104C20004CE31216E4124CEAA2E55004D2F08002E2
:104C3000C2F0E854DFFAA2F0E433F50C7405780C06
:104C4000121686124CE31216E4124CEAA2E2500449
:104C5000D2F08002C2F0E854FBFAA2F0E433F50C83
:104C60007402780C121686124CE31216E4E8F0A3D4
:104C7000E9F09002B8E0601B750C10780C12190373
:104C80007CB97D0274061216E4AA82AB831246B781
:104C90001216AF9002C9E06011E50A60097415129E
:104CA00016E4E04402F078018002780074141216D1
:104CB000E4E048F09002B6E06004780480027800F6
:104CC00074141216E4E048F0AC08AD09851882852A
:104CD0001983AA82AB8312091674181216AF7F06C5
:104CE0000217C2EA450CF8741522E8F0A3E9F09027
:104CF0000BD1E02274F31216F074E5121699EAFE55
:104D0000EBFF8C098D0A74281216E4E0F50C75F09F
:104D100006E9A4F87408650A7004742280027421FC
:104D200028F50B7C1B7D007900124D6C7A1BA90BBA
:104D30001247707032741A1216E4E024F9C3940A10
:104D40005025E50CF50B780B12190774011216E4C7
:104D5000AC82AD83E509A2E0E433F9EEFAEFFB1291
:104D6000092874011216AF741B024933124D74AC3A
:104D700082AD8322851882851983AA82AB831203B0
:104D8000E28518828519832274F71216F0120BDA65
:104D9000750800E50875F00EA4F8A9F074D128FE96
:104DA000740239FF7C0679FFEEFAEFFB1244A07023
:104DB00009EEFAEFFB7900120BE00508E508C39451
:104DC0000A40D002480DC082C0839061907404F004
:104DD000A37448F0A3E4F09061807440F09061BC4B
:104DE0007407F09061877469F09061B67416F07979
:104DF00000120E507902120E569021C0E493F46016
:104E000006E493F9120E2C7905121144025208C0DF
:104E100082C083E9540FF9906185E0696012E5C6AC
:104E200054804449F5C6E59E547F644970F8E9F022
:104E300053C680E59E547F70FA02520874F712162A
:104E4000F0E5A8FE53A87E120E38C2BA539AFEC2ED
:104E500089759B00C2C2120E3E75A91175B9051263
:104E60000E44D2BA439A0174805E42A8025795C09C
:104E700082C083906181E4F0A302520575E9007558
:104E8000910075BF00020122C082C083906181E45D
:104E9000F0A374C0F0A3E4025207C082C08374F888
:104EA00012169990075B125677E8497003024F512A
:104EB00090075BE054406023790885188285198348
:104EC000AA82AB83120F46851882851983AA82AB0A
:104ED00083120BF890075BE054BFF0E05480601041
:104EE000790C7A177B09120F4690075BE0547FF02C
:104EF000E0A2E050087900124F5954FEF0E054024D
:104F000060087901124F5954FDF0E05404600879AB
:104F100000124F6454FBF0E0540860087901124F0E
:104F20006454F7F0E0541060087902124F6454EFB3
:104F3000F0E0542060087903124F6454DFF0A3E0DE
:104F40005401600D120E62120C0A90075CE054FED0
:104F5000F074081216AF025208120E50120BFE9097
:104F6000075BE022120E56120C0490075BE022C091
:104F700082C083E9600514602A804F90619A74337F
:104F8000F0A37455F09061A0743AF09008F3E064D7
:104F9000017009C29190075D7467802D90075D7460
:104FA00061802690619A743FF0A3745AF09061A0DA
:104FB000747FF09008F3E064017009D29190075D6E
:104FC0007471800590075D746AF0025208C082C057
:104FD00083E9600B14600D14600F14601180209041
:104FE00021C480159021C580109021C6800B9008A7
:104FF000F3E0640160F39021C7E493906186F002CE
:10500000520874EE1216F074F412169985188285FF
:105010001983AC82AD837583907582017404121577
:10502000AC9021C493F46003025194907808E0C3DB
:105030009402500302517474041216E4AC82AD83DE
:1050400075838F75825A74081215ACF97AFF7BFF4D
:105050007FFF7E008982858210801874086E70033D
:1050600002512974096E7003025129740A6E70038B
:10507000025129E510C333FCE433FD74041216E435
:10508000E5822CF582E5833DF583E0F50EA3E0F59E
:105090000F8E087509007402780812168674482568
:1050A00008FC74783509FD8C828D837808121569A7
:1050B000740878081214AA85080C85090D8C828D55
:1050C000837808121569741878081214AAE50C453B
:1050D00008F508E50DF509C3E50E9508E50F9509F6
:1050E0008C828D8378081215698C828D83780812E2
:1050F00015697418780840141214AAE50C4508FCC8
:10510000AD0DE50EC39CFCE50F9D800F1214AAE5C2
:105110000C4508C3950EFCE50D950FFDC3EC9AED0B
:105120009B5006ECFAEDFBEEFF0EEEC3941350031A
:1051300002505B74FF6A700374FF6B602D8F0874FC
:105140000278081216867448125E2374783509F5C1
:10515000837808121569851882851983E5822510E0
:10516000F582E583125BB0E508F009E9C3940450C9
:105170000302504C75080175090078081219037470
:10518000021216E4AC82AD837A717B081205FE74BC
:10519000021216AF740C1216AF7F0A0217C2C08239
:1051A000C083906186E0F89021C7E493687009900D
:1051B00021C6E493906186F09061AE7468F0A374A8
:1051C0006AF090624574FBF0A304F053F4FD43FED3
:1051D000029008F37401F09061A0E0643A700479E1
:1051E0000080027901120E50025208C082C08390E2
:1051F00008A5E06401700A9008AAE06004790C80B8
:105200000279008003F0A3F0D083D082020122C093
:1052100082C08375E1F19008A8E0604D1460081425
:1052200060511460498051120E7490089EE0F97A22
:105230009F7B081210C6908FA11215871210FC9048
:105240008FB91215871210D29008A9E0F91210DE5A
:10525000790112113890089CE0241612539D748C29
:10526000F0A3740EF07900809F120E7A80BC120EAB
:105270008080B7120E8680B2791280EB74F4121619
:10528000F075D90D90088DE0A2E0E4331313F81205
:105290005309484401F5D9780012538740FB780040
:1052A0008808748E125E23740812539140F275E1DF
:1052B0009590088DE0F97A8E7B081210CC900D5CE9
:1052C0007402F0A3740E1253AC1253CC1253C312D7
:1052D00055041253137808121569908F9D7808129F
:1052E00014F5908FB178081215431253977808126D
:1052F000157890089CE0241412539D7413F09007C5
:10530000597402F07F040217C290089EE0C4333340
:1053100054C02290089CE0F8A3E0F5838882A3A300
:105320002274F61216F01254D58AD97800125387D7
:1053300040FB7800800612543B125587E8C3994021
:10534000F51254C712538740FB78008008125E1F85
:105350007408125587E8C39940F375E195900D5C88
:10536000740EF0A3740E1253AC1253B612158712BA
:10537000539712159390089CE0241412539D7412B5
:10538000F09007590257728808749F2508F58274B7
:10539000081256E394062290089CE0240EF8A3E03D
:1053A0001253A4223400F988828983221254ED74A6
:1053B00008F0A3740E221253CC1253C31255089056
:1053C0008F8D22F0A37420F0A3740E221253D022EA
:1053D0001253D422F0A374B2F0A3740F2274F61205
:1053E00016F01254301253094402F5D978001253C2
:1053F0008740FB7800800612543B125587E8C3991A
:1054000040F575E195900D5C125446F0A312544698
:105410001253B912158712539712159390089CE0F6
:10542000241412539D7414F0900759740402577495
:105430009008AEE0F9740729F5D922880874AF25E1
:1054400008F582740822741A125453125453F0A3AC
:10545000740E22F0A3740EF0A3741A2274F61216BE
:10546000F01254D574064AF5D9780012538740FBE0
:105470007800800612543B125587E8C39940F51214
:1054800054C712538740FB78008008125E1F7408CF
:10549000125587E8C39940F375E195900D5C74143B
:1054A000F0A3740E1254E31253B6121587125397D9
:1054B00012159390089CE0241412539D7415F090DB
:1054C000075974030257749008CE12543374044A77
:1054D000F5D978002212543090089EE0C43333543A
:1054E000C0FA221254ED74B2F0A3740F221254F1D8
:1054F000221254FE74B2F0A3740F1254FE221253FF
:10550000D4F0A32212550822F0900D6A74B2F0A3D1
:10551000740F1254F174B2F0A3740F1253D0F0222E
:10552000C082C083125313A3A3A3A3E40252057441
:10553000F71216F0126065F8740739F9E82405FAD5
:10554000E93400FB8A828B83125DD488828983A32D
:10555000A3A3A3A3A3A3A3A3ECF0A3EDF088828944
:1055600083A3A3A3A3A3A3A3E024FFF8A3E034FF92
:10557000F98A828B83E8F0A3E9F0025795880874D2
:10558000F72508F5827408125CFBF5D90822EAFEBB
:10559000EBFF9061D0E0F87480C398FAEE24832288
:1055A0001255A6940422125BBEE0F5D90AEAC32282
:1055B00074F61216F0EAFEEBFF9061D0E07075759C
:1055C000D90E75D90375D9047A008A08EE25081218
:1055D0006133248C12564940F17A008A08EE25087E
:1055E00012613324841255A040F175E1957908EEDB
:1055F000248C12564224841256397C008C82AA8252
:10560000C3E49AF895E0F9EE28F8EF39F9E8248B2D
:10561000F582E9125CF7C0E0EE2A12613324ABF5A3
:1056200082E9125BB0D0E0F00CECC3940840CD12DC
:1056300056FF80027900025775FAEF3400FB120F13
:105640003A221256397904EE221255A6940822C045
:1056500082C08375D90275D90375D90575E195EABC
:105660002470F582EB125674EA2472F582EB12571D
:1056700011025208125BC112567B22E0F8A3E0F936
:105680002274F61216F0EAFEEBFF9008F774061289
:1056900056ED1219037C017903125A191216AF75CF
:1056A000D90675D90378001256D340FB75E1959061
:1056B0000759E064087017EE2470F582EF125674F3
:1056C000EE2472F582EF125BB0E8F0A3E9F0790105
:1056D000025775880874F72508F58274081256E396
:1056E000940522125BC1E0F5D908E8C322F07508E1
:1056F000F775090878082275E1957904121102EE10
:105700002470F582EF125BC112567BEE2472F58293
:10571000EF125BC1E8F0A3E9F079012274F61216EA
:10572000F0EAFEEBFF9061D0E0704379019008F75A
:10573000740BF0900759E0640770177508F7750946
:105740000878081219037C010909125A191216AFB8
:105750007905740129F5D975D903780080031255AC
:105760007DE8C39940F875E1951256FF80027900F3
:1057700080037401F07F020217C274F71216F0EA78
:10578000FEEBFF75D90375D90375D90DEE24DE1232
:10579000579A1256F77F010217C2F582EF125CFB8F
:1057A000F5D9227F030217C27401250AF5D975D9EC
:1057B0000378002274F51216F01258296004780458
:1057C00080027800E8240BF8EAC3984041750A0982
:1057D0009008F77409F0790812581260147508F7E8
:1057E0007509087808121903125A111216AF750AB2
:1057F0000D1257A8800312557DE8C3950A40F7752E
:10580000E195790412110212598E79018002790012
:105810008091EE24E3FCEF3400FD7AF87B08120F50
:1058200034850882850983E02212558EF8EF125DD7
:10583000C8F583E02274F31216F08A088B09125A15
:1058400024FAE5082483F50AEB1258F3600478047F
:1058500080027800E82408F8EAC39850030258EC64
:10586000750C069008F7740CF0900776E09008F835
:10587000F07402C0E0F97C777D077AF97B08120F9B
:1058800034D0E0F97C797D07120F34850A82850BCC
:1058900083E0601C750AF7750B08780A1219037CFF
:1058A000067903AA08AB09125A191216AF750C0A29
:1058B0007401250CF5D975D90378008009880A741C
:1058C000F7250A125583E8C3950C40F175E19579E7
:1058D00004121102E5082470F582E509125674E5F8
:1058E000082472F582E509125711800279007F05BC
:1058F0000217C23400F50B850A82F583E02274F6A4
:105900001216F0EAFEEBFF125A24FCEE2483F8EFA5
:10591000125A1F60047A0480027A00EA2404FAEC26
:10592000C39A405E7A029008F7EAF0EE24F5F58219
:10593000EF12599A60197508F77509087808121955
:10594000037C027903EEFA125A191216AF7A067422
:10595000012AF5D975D9037800800312557DE8C373
:105960009A40F875E195EE2474125987EE2480125E
:10597000598712598E7904121102EE240D12570222
:1059800080027900025775F582EF125B0A22EE243D
:105990001DF582EF125B0AA3F022125CFB9008F85F
:1059A000F088828983E02274F61216F0125A24FEDF
:1059B000EA2483F8EB125A1F60047C0480027C0006
:1059C000EC2404FCEEC39C40437C029008F774076F
:1059D000F0EA24F6F582EB12599A60157508F7750E
:1059E000090878081219037903125A191216AF7CA4
:1059F0000674012CF5D975D9037800800312557D02
:105A0000E8C39C40F875E19579018002790002575E
:105A1000757C097903EEFAEFFB120FA674022212CD
:105A200053A4E0229061D0E0F87480C3982274F50A
:105A30001216F0E9FEA2AFE433F50AC2AF7F00EA26
:105A4000246FF8EB3400F980010F88828983E0FC31
:105A5000EFC39C50188F08EA2508FCEB3400FDECDE
:105A6000246BF582ED125CF76E70DE8010EA2CFA82
:105A7000EB3400FB125BAAEE1259A004F0E50AA277
:105A8000E092AF0257A374F61216F0A2AFE433FF10
:105A9000C2AFEA246FF8EB126135FCE9FD8C828D10
:105AA00083E014F07E0080218E08EA2508F8EB12CE
:105AB0006135246CF582E9125CF7C0E0E8246BF5EF
:105AC00082E9125BB0D0E0F00E8C828D83E0F8EEBC
:105AD000C39840D4EA246E125BAD74FF125AFFEFF4
:105AE000A2E092AF025775C082C083E5A8F8C2AFAA
:105AF000125BAAE9125AFFE8A2E792AF025208F03D
:105B0000EA246AF582EB125B0A22125BC1E4F022FE
:105B100074F21216F08C828D83A3A3A3A3E0541F0A
:105B2000F0EA2436125E6C8E828F83E4F0F50C85E9
